:020000041000EA
:1000000000200008EB0000100D0000004D01001062
:1000100000000000000000000000000000000000E0
:100020000000000000000000000000004901001076
:10003000000000000000000049010010490100100C
:100040004901001049010010490100104901001048
:100050004901001049010010490100104901001038
:100060004901001049010010490100104901001028
:100070004901001049010010490100104901001018
:1000800010B5064C2378002B07D1054B002B02D06E
:10009000044800E000BF0123237010BDB003000836
:1000A000000000000C150010044B10B5002B03D00D
:1000B0000349044800E000BF10BDC0460000000036
:1000C000B40300080C1500100230800803D0013082
:1000D0000238FCD1C046C0467047EFF3108072B6BC
:1000E000704780F3108870477047FFF7FDFF72B6C6
:1000F0000F4C104DAC4209DA21686268A368043BDA
:1001000002DBC858D050FAE70C34F3E70A490B4A2F
:100110000020521A02DD043A8850FCDC08480949E4
:100120000860BFF34F8F00F0F9FE00F0A9FEFEE774
:100130001815001030150010B0030008C80500089D
:100140000000000808ED00E0FEE7FEE700B504202F
:100150007146084202D0EFF3098002E0EFF3088015
:10016000043000F08DFCFEE7014B18607047C0467C
:10017000C4050008044B1B681A00BA3212881B6AB7
:100180005043C0187047C046C40500081D4B984234
:100190000FD010D840282FD005D8002830D01028F4
:1001A00028D019481EE0802828D080235B00984280
:1001B000F7D1144816E0154B984214D008D8A02364
:1001C0001B0698421CD0124B9842EAD1A0200BE0AB
:1001D000104B98420AD0104B984209D00F4B9842CE
:1001E000DFD10F487047A420C003FBE70D48F9E7B3
:1001F0000D48F7E70D48F5E70D48F3E70D48F1E73F
:100200000020EFE706005200FF005200010000F05E
:10021000090000A0040000F0050000F0030000F059
:100220000100520002005200030052000100500081
:10023000020050000500520010B50020FFF79AFFA1
:100240000A4B1C682300BC331B68C0180368002BD2
:100250000ADB074B1868FFF799FF012263689A6071
:100260009A68002AFCD110BD0248FCE7C4050008CA
:10027000CC03000802005000064B1B68BC331B680F
:10028000C3181B68002B03DA89B241600020704755
:100290000148FCE7C405000801008A000368002B40
:1002A00004DA89B2C2608160002070470048FCE730
:1002B00001008A00064B1B68BC331B68C3181B680F
:1002C000002B03DAC36800200B6070470148FCE78D
:1002D000C405000801008A00024B1A68002A00D1F8
:1002E00018607047E0030008F0B52C246043154CFB
:1002F0001F0024681D0A2018FF2425402740124CA7
:100300001B0C26680760346A45608360BA363688FD
:1003100077433F1907612F0080376D017F01E7198F
:1003200064190A4D47611F043B436419236000238D
:100330008361059BC2610162002B01D01B88838110
:10034000F0BDC046E0030008C40500080810000026
:10035000F0B5836885B002AD2B800368066A173359
:100360006B804368476A0095826AC16A0400039300
:100370000369C068FFF7B8FF00213B000A00009145
:100380003000FFF7B1FF216B280000F02DFB0022A9
:10039000AB5E002B06DB1F2213401E3A9A4013006F
:1003A000014A136005B0F0BD00E100E0F7B52C256F
:1003B000134C684326686943341825690193711802
:1003C000002D19D08869002818D12E68002E15DA62
:1003D0006768012426004B689E40B44613689EB2AD
:1003E00063461B041E431660EA608C61BC40019B9F
:1003F000A4B24B62AC60FEBD0248FCE70248FAE7DB
:10040000E003000804028A0007028A0073B5002690
:1004100042690400D56801962B0CB34221D01B041D
:1004200013601368194B00691B68BC331B68C31841
:100430001B68B34215DA01A9FFF73CFFB0420CD1AB
:100440000198E26903681E0CDBB29A4205D9226A60
:100450009B009B58002B00D0984731002069FFF784
:100460000BFFADB2002D09D063691D6000251B682C
:10047000636AAB4205D098476562A56163691B68F2
:1004800073BDA36A002BF8D09847F6E7C4050008AF
:100490002C2310B54343034A1068C018FFF7B6FF7A
:1004A00010BDC046E0030008F8B5194B0F001B68EB
:1004B0001A0033321278824227D9002925D01F250D
:1004C0000A68154021D11900BA310C88114E6043D9
:1004D0001C6AD208041929007868346000F07EFF95
:1004E00029002000FFF7C8FE3A0029003068FFF716
:1004F000D5FE041E07D101003068FFF7BDFE0300E2
:100500002000002B00D00448F8BD0448FCE7C0469A
:10051000C4050008E403000801018A0003018A0001
:1005200010B5002A0DD1002914D10B4B1A68130005
:10053000BA331B885843136AC018084B1860080068
:1005400010BD002906D0064B196019005A60FFF74C
:10055000ABFFF5E70348F3E7C4050008E403000830
:100560007803000803018A00F7B5184F04003B68C0
:100570000191DE683368834226D90025A94202D161
:10058000FFF7ABFD050038680368002B1ADA1F225D
:1005900001232240934064097268A4001419226860
:1005A00013420DD09A43226000240021FFF764FE1D
:1005B000019B002B02D12800FFF793FD2000FEBD18
:1005C000034CF2E7034CF3E7034CF7E7E4030008BE
:1005D000020188000301880004018A000A4B1B689D
:1005E000DB681A6882420DD959681F2342091840F6
:1005F0001E3B8340920050581840431E9841034BC5
:10060000C01870470248FCE7E403000800018800B6
:1006100004018A00054B1B681A0088321B681268A7
:100620009B181868000AC0B27047C046C40500088D
:10063000044B1B681A0088321B6812689B181868E4
:10064000000E7047C4050008024B18694007C00F30
:100650007047C04600002740A6220549D2008B58AB
:100660000220DB439B0702D00123885818407047C3
:100670000000264010B5FFF7EFFF0023022801D14C
:10068000014B1B68180010BDEC030008094A8300E9
:100690009B18D0229200985807221040042807D1B6
:1006A000C022920098581F23034080204000184326
:1006B0007047C0460000264010B5FFF7E7FF02284C
:1006C0001CD005D8002824D0012814D0002014E024
:1006D0001223FF33984214D01423FF33984215D0CD
:1006E000033B9842F2D10C4A0C4BD358002BEDDA65
:1006F0008020000201E00A4B186810BDFFF7BAFF26
:10070000FBE7FFF7A1FF0028E0D0F1E7024A054B25
:10071000EBE70548F1E7C046000026400C05000065
:10072000E80300083C05000000127A00B023154AD7
:10073000DB00D35810B59903DB01DB0F890BC371C4
:10074000114B0160D3580F24D904DB01DB0D038169
:10075000B123DB00D358C90C81801900214081727C
:1007600019092140C172D9029B009B0F8373074B6B
:10077000C90CD35881815A05DB01520FDB0D827100
:10078000038210BD00002640840500008C05000097
:1007900010B5104B421E1B683F331B78934216D98D
:1007A0007F221F248030FF300B4B8000C3581A403B
:1007B0000A701A0C2240180A8A701A012040E2407E
:1007C000487000209B009B0FCA700B7110BD03483E
:1007D000FCE7C046C40500080000264001004A00AE
:1007E000F0B589B003AC14220021200000F0F6FD22
:1007F0002000FFF79BFFB0231A4ADB00D2580023EA
:100800009A4203DAA37B023B5A1E9341E579002604
:100810006A1E95410135B34221D0A488B4421ED04E
:10082000039B30000193FFF747FF2A0033000700C6
:100830003100200000F0BCFC0C0005003300019AE0
:100840003100380000F0B4FCE6076A083243630860
:10085000801859412A00230000F08AFC060030006D
:1008600009B0F0BD00002640F0B50026244B85B04D
:100870001B6807003F331B78B3423ED0B0423CD0E8
:1008800083423AD30522310002A800F0A7FD02A955
:100890003800FFF77DFF3B008033FF33194A9B0090
:1008A0009B58B34229DA02AB1B79022B25D002AB4D
:1008B0005C78B44221D09D78B5421ED01B783800B8
:1008C0000193FFF7F9FE2A003300070031002000F2
:1008D00000F06EFC0C0005003300019A3100380076
:1008E00000F066FCE6076A08324363088018594145
:1008F0002A00230000F03CFC0600300005B0F0BDEB
:10090000C40500080000264010B5041E04D1FFF7FE
:1009100067FF002806D008E0064B1B683F331B78B2
:10092000834203D22000FFF7C7FE10BDFFF79CFFF4
:10093000EFE7C046C4050008E02210B50124094BCA
:1009400080009200C018835880589B069B0F9C40E3
:100950000F231840FFF7D8FF63081818210000F094
:100960007BFB10BD00002640144B30B51A680724ED
:1009700013002C331B781F2B15D883081D00A543AB
:100980002C1E0FD103342040A040814012689B00F0
:100990002032D3180A00FF2181401C6862401140B8
:1009A0006140196030BD802320401B06184380231E
:1009B0009B011268C91889008850F3E7C405000834
:1009C000064B9A680300064810339B00824202D10E
:1009D000985899507047034AD058FBE700ED00E063
:1009E0000000000800000010F8B506000D00002807
:1009F0003AD00023C05E002828DB7188FFF7B4FFDF
:100A00000024FF22032794460023F05E716883B21E
:100A10001F40FF006646BA4089013140D243B940C9
:100A2000002815DB114E83089B009B19C026B600D9
:100A30009F593A40114399510D4B9A680D4B9A4278
:100A400002D12900FFF7BCFF2000F8BD0A4CD8E70F
:100A50000F263340083B064E9B089B009B19DE691E
:100A600032401143D961E7E7034CEDE700E100E0D4
:100A700000ED00E00000000801005600FEE7000065
:100A800002680A4B10B51A6042685A6082689A6020
:100A9000C268DA6002691A6142695A6182699A61C0
:100AA000C269DA61FFF7EAFF10BDC0469003000893
:100AB000B0235B055A782120002A01D05878C0B2B3
:100AC0007047B0235B059A89002A02D0988980B2CA
:100AD000704780204000FBE77FB5274B86000D0064
:100AE000F458042901D0012927D100200FE0A36880
:100AF0002B420BD1E36829001A685B6802920193CC
:100B0000039302A8236898471C4B1C606469002C5F
:100B10000BD01B4B9842EAD1012DE8D1174B184856
:100B20001A68184B9A5104B070BD012DFBD1144BBB
:100B30009842F3D0134B9C51F5E7022906D10F4B95
:100B40001B68181EEFD01C6903E01C006369002BB2
:100B5000FBD10020002CE6D0A3682B4209D1E3682A
:100B600029001A685B6802920193039302A8236824
:100B700098472469EEE7C046300400082C040008BA
:100B8000FF004200180400081A4B1B681900883146
:100B90001A68096851180968016219008C310968DE
:100BA0005218126842621A0046321278002A1FD088
:100BB0009A68E0321268D2061AD5F222DB68D201B6
:100BC0009A580260F022D2019A5842600A4A9A5812
:100BD00082600A4A9A58C260094A9A580261094AD0
:100BE0009A584261084A9A588261084A9B58C361E0
:100BF0007047C046C405000804780000087800006B
:100C00000C780000107800001478000018780000BC
:100C10001A4B1B681A008832196812688A18016A10
:100C200011601A008C32196812688A18416A1160C2
:100C30001A0046321278002A1ED09A68E0321268F2
:100C4000D20619D5F0224168DB68D201995081683B
:100C50000B4A9950C1680B4A995001690A4A995048
:100C600041690A4A99508169094A9950C169094AFA
:100C700099500168E83299507047C046C405000891
:100C800004780000087800000C780000107800005C
:100C90001478000018780000F7B50700FFF708FF88
:100CA000664D06006B68002B00D07DE0FFF715FA5B
:100CB0006B680090002B00D089E0614C2268130023
:100CC000BA33198807234B43126A9B181A68002A03
:100CD000FCDADB68DA0021D51B0F1B0759480193AA
:100CE000FFF752FF5849212E00D075E0226890206E
:100CF000130088331C68136800011C1923680B401B
:100D00000343236013008C3312681B68D3181A68DE
:100D10001140084318604B4B019A13438022484E00
:100D20009205316813430A00BA3210880722002462
:100D30004243096A5218D36054605368FFF7C1FEFA
:100D400080235B0098425DD1380000F05DFB326883
:100D50001300BA33198807234B43126A9B181A6889
:100D6000002AFCDADF68FB0003D538010009FFF731
:100D70004FFF364B32681F401300BA3319880723E0
:100D80004B43126A00989B180022DF605A60FFF7FD
:100D9000A8F9002C0FD16B68002B03D0082101208B
:100DA000FFF79AFE2000FEBD01210800FFF794FE28
:100DB000041E00D17AE76B68002B03D002210120CA
:100DC000FFF78AFE224B9C42ECD0224CEAE704213A
:100DD0000120FFF781FE70E720688022030088333E
:100DE0001C68036852001C1923680B4013432360DE
:100DF00003008C3300681B68C318186801400A435D
:100E00001A6088E733681A00BC32196A12685218EF
:100E10001168002910DBBA331B889A181368002B5D
:100E20000ADB04230C4A11690B431361012F01D023
:100E300030BF8CE720BF8AE7054C88E73004000804
:100E4000C4050008F0030008FF00FFFFFFFFFFDFFD
:100E500005004200FF00420000ED00E0C0228020BB
:100E6000064952008B58C0059B009B0803438B50DA
:100E7000802388581B0603438B5070470000264090
:100E800010B562B6034800F0C1F80020FFF704FF78
:100E9000FBE7C0460020001010B50020FFF7F8FA6D
:100EA00010BD704710B50020FFF746FD041E25D089
:100EB000134B1860FFF7BCFB411C200000F0CCF87E
:100EC000104B04001860FFF7A5FB411C200000F048
:100ED000C3F80D4B441E18600C49200000F0BCF80C
:100EE000FA210B4B013018708900200000F0B4F893
:100EF000084B01301860084BC003186010BDC04695
:100F000084000008880000088000000840420F00AC
:100F100094000008900000088C00000810B52048DC
:100F2000FFF722F9B022E02130201E4CD200A35856
:100F300089005B005B08A3506358834363508023A0
:100F40005B04A350184B194AE250A02204339201CB
:100F5000E250FF22164BE250FFF780FFC022012132
:100F60005200A3588B43A350FFF79BFFFFF79AFF54
:100F7000104B03201A681300BA33198807234B4318
:100F8000126A80219B180022DA605A600A4AFFF731
:100F9000C7FA0A48FFF7A0F90948FFF7D9F910BDC9
:100FA0001814001000002640840500000100020013
:100FB0008C050000C40500088003000844040008F4
:100FC000D81400109023034A5B01D0580323184023
:100FD0007047C0460000204010B59024FFF77DF810
:100FE000074B64011A5907491140074A0A431A512D
:100FF000102259681142FCD0FFF773F810BDC046AB
:1010000000002040FCFF00000100FA05F8B5902523
:101010000E4C6D010700FFF760F863590600DB43D3
:101020009B0701D1FFF7D8FF80239B00E75063594E
:10103000074A1A40074B13436351102362681A4250
:10104000FCD03000FFF74DF8F8BDC046000020404E
:10105000FCFF00000300FA05002243088B4274D312
:1010600003098B425FD3030A8B4244D3030B8B42A9
:1010700028D3030C8B420DD3FF22090212BA030CB2
:101080008B4202D31212090265D0030B8B4219D393
:1010900000E0090AC30B8B4201D3CB03C01A5241B3
:1010A000830B8B4201D38B03C01A5241430B8B42FB
:1010B00001D34B03C01A5241030B8B4201D30B03E4
:1010C000C01A5241C30A8B4201D3CB02C01A52410B
:1010D000830A8B4201D38B02C01A5241430A8B42CE
:1010E00001D34B02C01A5241030A8B4201D30B02B7
:1010F000C01A5241CDD2C3098B4201D3CB01C01AD1
:10110000524183098B4201D38B01C01A52414309DA
:101110008B4201D34B01C01A524103098B4201D3C8
:101120000B01C01A5241C3088B4201D3CB00C01A35
:10113000524183088B4201D38B00C01A52414308AD
:101140008B4201D34B00C01A5241411A00D20146D2
:10115000524110467047FFE701B5002000F006F845
:1011600002BDC0460029F7D076E770477047C046F9
:10117000002B11D1002A0FD1002900D1002802D064
:101180000021C943081C07B4024802A1401802907C
:1011900003BDC046D9FFFFFF03B4684601B50298FE
:1011A00000F030F8019B9E4602B00CBC7047C04670
:1011B000F0B5CE46474615042D0C2E0080B5070429
:1011C000140C3F0C9946030C7E435D436743634315
:1011D0007F19340CE4199C46A54203D980235B0295
:1011E0009846C4444B4643435143250C360465445A
:1011F000360C2404A4195B19591820000CBC904625
:101200009946F0BDF0B54F464646D646C0B50400F7
:1012100082B00D00914698468B422FD82CD0414683
:10122000484600F0CFF829000600200000F0CAF878
:10123000331A9C46203B9A4600D576E04B465246F0
:1012400093401F004B46624693401E00AF4228D891
:1012500025D05346A41BBD41002B00DA7BE00022C1
:1012600000230092019301235246934001930123EE
:1012700062469340009318E08242D0D900220023B6
:10128000009201930A9B002B01D01C605D600098C6
:10129000019902B01CBC90469946A246F0BDA342FB
:1012A000D7D900220023009201936346002BE9D096
:1012B000FB079846414672080A437B0866460EE0E3
:1012C000AB4201D1A2420CD8A41A9D41012024199D
:1012D0006D410021013E24184D41002E06D0AB4245
:1012E000EED9013E24196D41002EF8D100980199E4
:1012F000534600196941002B23DB2B005246D34093
:101300002A006446E2401C0053461500002B2DDBEA
:1013100026005746BE40330026006746BE403200D6
:10132000801A994100900191ACE7624620239B1AF4
:101330004A46DA406146130042468A4017001F437E
:1013400080E7624620239B1A2A0066469A402300C3
:10135000F3401343D4E76246202300219B1A002266
:10136000009101920122DA40019280E72023624637
:1013700026009B1ADE402F00B0466646B740464620
:101380003B003343C8E7C0461C2101231B0498429D
:1013900001D3000C10391B0A984201D3000A083906
:1013A0001B09984201D30009043902A2105C4018BD
:1013B0007047C04604030202010101010000000061
:1013C0000000000010B5002903D1FFF7DDFF203039
:1013D00002E0081CFFF7D8FF10BDC046030012183A
:1013E000934200D1704719700133F9E7F8B5C04650
:1013F000F8BC08BC9E467047F8B5C046F8BC08BCAF
:101400009E4670470000000001B40248844601BCBB
:10141000604700BF61020008000020400000244037
:1014200000000040000000000000234000003040A9
:101430000000314000009F400000224000001040AA
:1014400000009B402020202020132010101E208010
:1014500017007500FF03050104001C0310000000C5
:101460001FC0000000040000000000000019324B03
:10147000647D0202000000804000080B10000000A4
:101480000000FF012002001F00800004FF08101868
:10149000001000140018001C4044484C500000008C
:1014A0000810000008000000040000000410000004
:1014B00000120000042100000021000000160000BE
:1014C00040114002C41300138013A013401388136B
:1014D000A81320001C000000030000000100000011
:1014E000010000000000000005036000040000008F
:1014F0000100000000000000010000000604600080
:1015000008000000A4050008990E0010000000006B
:10151000F4FCFF7F01000000000000100000000844
:10152000800000003815001080000008F80200005C
:10153000B00300081802000000093D0000127A0004
:1015400000093D000000D007A00F000004000000CB
:10155000A90000108100001080B230B5C00020D07A
:10156000104B07221C682300BA331B885A43236A96
:10157000D31819680029FCDA3E210B4B06251960A7
:101580000A4B0B491960A3210A4BC9005D500A4957
:1015900058505858206A1218002050605A58002A93
:1015A000FCDA30BDC40500080401264008012640CD
:1015B0001E1F0000000026401C05000010B54378E7
:1015C000FF2B11D100F00CF90400032000F0E8F823
:1015D000C3685A68012311681943116011681942E0
:1015E000FCD1200000F01CF910BDF7B500900020E0
:1015F000019100F0D5F83F4D06002B681A005033DA
:10160000BC3214681B780419002B5AD000F0F8F88B
:10161000070003281BD000F0E3F8374A374B0500DA
:10162000D358002B3EDA364A0121300000F0C0F8D2
:10163000002837D10198FFF78FFF009B002B3ED089
:101640002368002BFCDB00F0C3F804002BE006202D
:1016500000F0A6F82B68BC331B68C0180368002B89
:1016600002DA284C2000FEBD002000F0C1F8264B15
:101670009842F6D00023254A19001268012000F094
:101680009FF80025A842ECD1002000F0B1F81E4AD6
:101690001F4B904203D09D42E3D00135F4E79D42B9
:1016A000B9D1DEE7174C032F05D10121002000F04E
:1016B000AFF80028F9D1280000F0B2F8D2E7154CB5
:1016C000F1E700F08DF80E4A05000121300000F02E
:1016D0006FF8002809D1009B002B08D02368002B4D
:1016E000FCDB00F075F80400E5E7064CE3E7094C85
:1016F000E1E7C046C4050008000026401C050000C4
:10170000CC0300080500520001018800DC0300083A
:10171000F049020001005000184BF7B51B68184A49
:101720005C68042311690B431361012824D030BF86
:101730002300FC331B69002B1DD1A320114B124940
:10174000124AC0000F681E5815680195104D0D60B3
:1017500006251D503E2010600E483E351D501D5878
:10176000002DFCDA0C48FC3420610F60A321C90075
:101770005E50019B1360F7BD20BFD9E7C405000888
:1017800000ED00E00000264008012640040126404C
:101790001E1F00001C050000AAAAAAAA0000000043
:1017A00001B40248844601BC604700BF75010010C7
:1017B00001B40248844601BC604700BF9D0200108E
:1017C00001B40248844601BC604700BFAD0300106D
:1017D00001B40248844601BC604700BF39020010D2
:1017E00001B40248844601BC604700BFDB00001022
:1017F00001B40248844601BC604700BFDD0500100B
:1018000001B40248844601BC604700BFC50F001008
:1018100001B40248844601BC604700BF690500105E
:1018200001B40248844601BC604700BFE3000010D9
:1018300000000000000000000000000000000000A8
:081840000000000000000000A0
:1020000000F80108412300100D000000B523001066
:10201000B5230010B5230010B52300100000000008
:10202000000000000000000000000000F159001056
:10203000B123001000000000915A001099590010BF
:10204000B123001000000000B1230010B1230010E4
:1020500000000000B1230010B1230010B1230010D4
:10206000B1230010B1230010B1230010B1230010E0
:10207000B123001000000000B1230010B1230010B4
:10208000B1230010B1230010B1230010B1230010C0
:10209000B1230010B1230010B1230010B1230010B0
:1020A000B1230010B1230010B1230010B1230010A0
:1020B000B1230010B1230010B1230010B123001090
:1020C000B1230010B1230010B1230010B123001080
:1020D000B1230010B1230010B1230010B123001070
:1020E000B1230010B123001000000000B123001044
:1020F000B1230010B1230010B1230010B123001050
:1021000000000000B1230010B1230010B123001023
:10211000B1230010B12300100000000000000000F7
:10212000B1230010B1230010B1230010B12300101F
:10213000B1230010B1230010B1230010B12300100F
:10214000B1230010B1230010B1230010B1230010FF
:10215000B1230010B1230010B1230010B1230010EF
:10216000B1230010B1230010B1230010B1230010DF
:10217000B1230010B1230010B1230010B1230010CF
:10218000B1230010B1230010B1230010B1230010BF
:10219000B1230010B1230010B1230010B1230010AF
:1021A000B1230010B1230010B1230010B12300109F
:1021B000B1230010B1230010B1230010B12300108F
:1021C000B1230010B1230010B1230010B12300107F
:1021D000B1230010B1230010B1230010B12300106F
:1021E000B1230010B1230010B1230010B12300105F
:1021F000B1230010B1230010B1230010B12300104F
:10220000B1230010B1230010B1230010B12300103E
:10221000B1230010B1230010B1230010B12300102E
:10222000B1230010B1230010B1230010B12300101E
:10223000B1230010B1230010B123001000000000F2
:10224000000000000000000000000000B1230010AA
:10225000B1230010B1230010B1230010B1230010EE
:10226000B1230010B1230010B123001000000000C2
:10227000000000000000000000000000000000005E
:102280000000000000000000B1230010000000006A
:10229000000000000000000000000000000000003E
:1022A000000000000000000000000000000000002E
:1022B000000000000000000000000000000000001E
:1022C000B1230010B1230010B1230010B12300107E
:1022D00000000000000000000000000000000000FE
:1022E000B1230010B1230010B1230010B12300105E
:1022F000B1230010B1230010B123001010B5054C1C
:10230000237833B9044B13B10448AFF300800123A1
:10231000237010BD742A000800000000C0A801103E
:1023200008B5034B1BB103490348AFF3008008BD58
:1023300000000000782A0008C0A80110704770470C
:10234000FFF7FCFF72B6144C144DAC4209DA216859
:102350006268A368043BA2BFC858D050FAE70C34A7
:10236000F3E70F490F4A00209142BCBF41F8040B2C
:10237000FAE70D480D490860BFF34F8F02F0F2FFF6
:1023800002F0D6FF03F02EF913F014F803F025F84D
:1023900012F0DCFFFEE70000CCA80110E4A8011059
:1023A000742A0008F40201080020000808ED00E08B
:1023B000FEE7FEE700B504207146084202D0EFF3C5
:1023C000098002E0EFF30880043011F0AFF8FEE777
:1023D00008B5002302220321074808F05BF908B181
:1023E00001BEFEE70549044808F0CAF908B101BE7C
:1023F000FEE7002008BD00BF902A0008FC2200086C
:1024000008B50123062219463C2007F063FD08BDEC
:1024100008B511F067F808BD2DE9F04383B00D460B
:10242000914698465F1C384612F0ECFF0446384649
:1024300012F0E8FF064605F07F05204600F8015B34
:102440004246494612F0EEFFDFF85080D8F80030DF
:1024500098690022042100F560700CF079FD0023DA
:102460000193009733463A4621460B480AF0A0F8FC
:102470000546D8F8003098690122042100F5607003
:102480000CF066FD204612F0C5FF304612F0C2FF88
:10249000284603B0BDE8F083882D0008CC00010871
:1024A0002DE9F04782B00F4690461E4603F1010920
:1024B000484612F0A7FF0546484612F0A3FF04461F
:1024C00067F07F07284600F8017B3246002112F0B2
:1024D000B7FFDFF860A0DAF8003098690022042125
:1024E00000F560700CF034FD00230193CDF80090EE
:1024F00023464A4629460E480AF05AF80746DAF8B3
:10250000003098690122042100F560700CF020FD74
:102510003246611C404612F085FF284612F07AFFD1
:10252000204612F077FF384602B0BDE8F08700BFC2
:10253000882D0008CC00010830B583B0234C244B13
:102540002360244B6360FFF75BFF0F20FFF760FF02
:10255000214D2946204600F049FF2B786A2B03D0F5
:102560001E4813F0C1FCFEE70121184800F045FFAA
:102570001B4C2146154800F059FF2378002BF7D15A
:10258000124C0621204600F018FF0021204600F0E2
:10259000FBFE0221204601F01BF90121204600F03C
:1025A00054FF0121204601F0FAF801A9204601F06C
:1025B00066F89DF8053043F004038DF80530019965
:1025C000204600F05BFF03B030BD00BF442B000885
:1025D00019240010A1240010552B0008488901106F
:1025E000542B000800B585B08DF80C008DF80D1047
:1025F0000123019300230093022303AA202104480E
:1026000008F0D8F800B101BE05B05DF804FB00BFCA
:10261000902A000808B501460120FFF7E3FF08BD36
:1026200008B501460320FFF7DDFF08BDF0B59C4665
:10263000394C0126C4F884600223C4F88430374F33
:102640002A253D600425C4F88450C4F88850C4F895
:102650008830C4F888604FEA102EC0B2C4F8846095
:10266000C7F800E0C4F88450C4F888503860C4F853
:102670008450C4F88850C4F88860080AC9B2C4F805
:1026800084603860C4F88450C4F888503960C4F855
:102690008450C4F88850C4F88860C4F88460C4F8D2
:1026A00084302B213960C4F88450C4F88850C4F8B1
:1026B0008830C4F88860110AD2B2C4F884603960E6
:1026C000C4F88450C4F888503A60C4F88450C4F800
:1026D0008850C4F888604FEA1C215FFA8CF2C4F875
:1026E00084603960C4F88450C4F888503A60C4F8F3
:1026F0008450C4F88850C4F88860C4F88460C4F872
:1027000084302C223A60C4F88450C4F88850C4F84D
:102710008830C4F88860F0BD0000314000013140CD
:1027200070B50446EF23002240F23F111046FFF738
:102730007DFF4FF0000C1CE0210AE0B2104B012598
:10274000C3F884500F4E31600421C3F88410C3F8DD
:1027500088103060C3F88410C3F88810C3F888501C
:102760002A4492B2B2F5A07FE6D30CF1010C1FFA15
:102770008CFCBCF1EF0F01D80022F3E770BD00BF65
:1027800000003140000131402DE9F04107468C4600
:1027900015469846BDF81840A0EB520080B207EBF2
:1027A0005207B9B212F0010F01D14B1E99B2ACEB36
:1027B000580292B20CEB58039BB218F0010F01D1F2
:1027C000013B9BB2FFF732FF4FF0000E1BE0230AE4
:1027D000E2B210490127C1F884700F4E3360042320
:1027E000C1F88430C1F888303260C1F88430C1F853
:1027F0008830C1F88870384480B2A842E7D30EF11F
:10280000010E1FFA8EFEC64501D20020F5E7BDE895
:10281000F08100BF00003140000131402DE9F84F48
:1028200086468C4615469946DDF82880BDF82C7002
:10283000BDF830600024A0EB520080B20EEB5201D4
:1028400089B212F0010F01D1013989B2ACEB590202
:1028500092B20CEB59039BB219F0010F01D1013B6D
:102860009BB2FFF7E3FE4FEAD50C15F0070F01D03E
:102870000CF1010C002249E014F0800F2AD1330A38
:102880005FFA86FE24484FF0010AC0F884A0DFF802
:102890008CB0CBF800300423C0F88430C0F8883006
:1028A000CBF800E0C0F88430C0F88830C0F888A0C9
:1028B0006400E4B2013189B2A94225D211F0070FB8
:1028C000DAD112FB0CF3C80810FA83F39BB218F8A4
:1028D0000340D1E7380A5FFA87FE0F4B4FF0010A39
:1028E000C3F884A0DFF834B0CBF800000420C3F8AC
:1028F0008400C3F88800CBF800E0C3F88400C3F874
:102900008800C3F888A0D3E7013292B24A4501D2C9
:102910000021D1E7BDE8F88F0000314000013140CF
:102920002DE9F843EA4C0125C4F884504FF0020821
:10293000C4F88480E74F3D600426C4F88460C4F87E
:102940008860C4F88880C4F88850322010F0CAFD2E
:10295000C4F88450C4F884804FF01109C7F800907F
:10296000C4F88460C4F88860C4F88880C4F88850CB
:10297000782010F0B7FDC4F88450C4F88480CF23C9
:102980003B60C4F88460C4F88860C4F88880C4F8E8
:102990008850C4F8845000233B60C4F88460C4F8B5
:1029A0008860C4F88850C4F8845083223A60C4F820
:1029B0008460C4F88860C4F88850C4F88450302219
:1029C0003A60C4F88460C4F88860C4F88850C4F8D9
:1029D0008450C4F88480ED223A60C4F88460C4F85E
:1029E0008860C4F88880C4F88850C4F88450642291
:1029F0003A60C4F88460C4F88860C4F88850C4F8A9
:102A0000845003223A60C4F88460C4F88860C4F833
:102A10008850C4F8845012223A60C4F88460C4F824
:102A20008860C4F88850C4F8845081223A60C4F8A1
:102A30008460C4F88860C4F88850C4F88450C4F82E
:102A40008480E8223A60C4F88460C4F88860C4F8DE
:102A50008880C4F88850C4F8845085223A60C4F84D
:102A60008460C4F88860C4F88850C4F884503D601D
:102A7000C4F88460C4F88860C4F88850C4F88450EE
:102A800079223A60C4F88460C4F88860C4F8885039
:102A9000C4F88450C4F88480CB223A60C4F88460BF
:102AA000C4F88860C4F88880C4F88850C4F884509A
:102AB00039223A60C4F88460C4F88860C4F8885049
:102AC000C4F884502C223A60C4F88460C4F888604A
:102AD000C4F88850C4F884503B60C4F88460C4F8DB
:102AE0008860C4F88850C4F8845034223A60C4F82E
:102AF0008460C4F88860C4F88850C4F88450C7F86B
:102B00000080C4F88460C4F88860C4F88850C4F8B1
:102B10008450C4F88480F7213960C4F88460C4F814
:102B20008860C4F88880C4F88850C4F88450202194
:102B30003960C4F88460C4F88860C4F88850C4F868
:102B40008450C4F88480EA213960C4F88460C4F8F1
:102B50008860C4F88880C4F88850C4F884503B600A
:102B6000C4F88460C4F88860C4F88850C4F88450FD
:102B70003B60C4F88460C4F88860C4F88850C4F826
:102B80008450C4F88480C1213960C4F88460C4F8DA
:102B90008860C4F88880C4F88850C4F88450C7F8A6
:102BA0000090C4F88460C4F88860C4F88850C4F801
:102BB0008450C4F88480C5213960C4F88460C4F8A6
:102BC0008860C4F88880C4F88850C4F884503A609B
:102BD000C4F88460C4F88860C4F88850C4F884508D
:102BE0003D223A60C4F88460C4F88860C4F8885014
:102BF000C4F88450C4F88480C7223A60C4F8846062
:102C0000C4F88860C4F88880C4F88850C4F8845038
:102C1000C0223A60C4F88460C4F88860C4F8885060
:102C2000C4F88450C4F8848036223A60C4F88460C2
:102C3000C4F88860C4F88880C4F88850C4F8845008
:102C400068223A60C4F88460C4F88860C4F8885088
:102C5000C4F88450C4F884803A223A60C4F884608E
:102C6000C4F88860C4F88880C4F88850C4F88450D8
:102C700055223A60C4F88460C4F88860C4F888506B
:102C8000C4F88450C4F88480B1223A60C4F88460E7
:102C9000C4F88860C4F88880C4F88850C4F88450A8
:102CA0003B60C4F88460C4F88860C4F88850C4F8F5
:102CB00084501D223A60C4F88460C4F88860C4F867
:102CC0008850C4F88450C4F88480B62104E000BF62
:102CD00000003140000131403960C4F88460C4F81C
:102CE0008860C4F88880C4F88850C4F884500A22E8
:102CF0003A60C4F88460C4F88860C4F88850C4F8A6
:102D00008450A2203860C4F88460C4F88860C4F895
:102D10008850C4F8845027203860C4F88460C4F810
:102D20008860C4F88850C4F884503B60C4F884605C
:102D3000C4F88860C4F88850C4F88450C4F884800B
:102D4000B7233B60C4F88460C4F88860C4F8888006
:102D5000C4F88850C4F8845007233B60C4F88460EA
:102D6000C4F88860C4F88850C4F88450C4F88480DB
:102D70003960C4F88460C4F88860C4F88880C4F8F6
:102D80008850C4F8845008233B60C4F88460C4F8B9
:102D90008860C4F88850C4F88450C4F8848026231E
:102DA0003B60C4F88460C4F88860C4F88880C4F8C4
:102DB0008850C4F884503D60C4F88460C4F88860CA
:102DC000C4F88850C4F88450C4F88480E0233B6081
:102DD000C4F88460C4F88860C4F88880C4F8885057
:102DE000C4F884501F233B60C4F88460C4F8886032
:102DF000C4F88850C4F884501A233B60C4F8846037
:102E0000C4F88860C4F88850C4F8845018233B6024
:102E1000C4F88460C4F88860C4F88850C4F884504A
:102E20003A60C4F88460C4F88860C4F88850C4F874
:102E300084500F233B60C4F88460C4F88860C4F8F1
:102E40008850C4F8845006233B60C4F88460C4F8FA
:102E50008860C4F88850C4F8845045233B60C4F8A7
:102E60008460C4F88860C4F88850C4F8845087230C
:102E70003B60C4F88460C4F88860C4F88850C4F823
:102E800084504FF03209C7F80090C4F88460C4F849
:102E90008860C4F88850C4F884503A60C4F88460EC
:102EA000C4F88860C4F88850C4F8845007233B6095
:102EB000C4F88460C4F88860C4F88850C4F88450AA
:102EC000C7F80080C4F88460C4F88860C4F88850EB
:102ED000C4F884503B60C4F88460C4F88860C4F8C7
:102EE0008850C4F8845005233B60C4F88460C4F85B
:102EF0008860C4F88850C4F8845000223A60C4F84E
:102F00008460C4F88860C4F88850C4F88450C4F859
:102F10008480E1213960C4F88460C4F88860C4F812
:102F20008880C4F88850C4F884503A60C4F884603B
:102F3000C4F88860C4F88850C4F8845025223A60E8
:102F4000C4F88460C4F88860C4F88850C4F8845019
:102F50003860C4F88460C4F88860C4F88850C4F845
:102F600084503B60C4F88460C4F88860C4F888501A
:102F7000C4F8845010223A60C4F88460C4F88860B1
:102F8000C4F88850C4F8845009223A60C4F88460B8
:102F9000C4F88860C4F88850C4F884503A223A6073
:102FA000C4F88460C4F88860C4F88850C4F88450B9
:102FB00078203860C4F88460C4F88860C4F8885009
:102FC000C4F884504D213960C4F88460C4F8886026
:102FD000C4F88850C4F884503B60C4F88460C4F8D6
:102FE0008860C4F88850C4F8845018233B60C4F843
:102FF0008460C4F88860C4F88850C4F884500D23F5
:103000003B60C4F88460C4F88860C4F88850C4F891
:10301000845038233B60C4F88460C4F88860C4F8E6
:103020008850C4F884503A60C4F88460C4F888605A
:10303000C4F88850C4F884501F233B60C4F88460EF
:10304000C4F88860C4F88850C4F88450C4F88480F8
:1030500011233B60C4F88460C4F88860C4F8888099
:10306000C4F8885010F03EFAC4F88450C4F8848044
:1030700029233B60C4F88460C4F88860C4F8888061
:10308000C4F88850484610F02DFABDE8F88300BF18
:1030900008B5012306221946082006F01BFF00B1DF
:1030A00008BD012306221946092006F013FF002857
:1030B000F6D10123062219460A2006F00BFF00284C
:1030C000EED1012306221946102006F003FF002846
:1030D000E6D1012306221946112006F0FBFE002846
:1030E000DED1012306221946122006F0F3FE002845
:1030F000D6D1012306221946132006F0EBFE002844
:10310000CED1012306221946142006F0E3FE002842
:10311000C6D1012306221946152006F0DBFE002841
:10312000BED1012306221946162006F0D3FE002840
:10313000B6D1012306221946172006F0CBFEAFE7D1
:1031400008B5FFF7A5FF00B108BDFFF7E9FB0020B8
:10315000FFF7E6FAF8E7000010B42B4B1B6913F0F9
:10316000080103D1294802780132027013F01002DD
:1031700003D1274C20780130207013F0200303D1B5
:10318000244C20780130207019B920480078052897
:103190002DD01AB91E48007805282CD01BB91D481F
:1031A000007805282BD049B118490978052905D997
:1031B0001949022008701549002008704AB1144AC4
:1031C0001278052A05D9154A02211170104A0021EA
:1031D00011704BB10F4B1B78052B05D9104B0222F8
:1031E0001A700C4B00221A705DF8044B70470A48A5
:1031F00001240470CDE7094801240470CEE7084893
:1032000001240470CFE700BF00033140592B0008B0
:103210005A2B00085B2B0008562B0008572B000880
:10322000582B000808B5034B034A0449044800F032
:103230006BFB08BD5931001040420F005C89011042
:103240005C2B000810B5044600231A4619463320AB
:1032500006F040FE00231A461946342006F03AFED6
:1032600000231A461946352006F034FE04B910BD75
:10327000FFF7D8FFFBE7000000B583B0002256211E
:10328000104805F0D5FD00B101BE0F490D4805F00D
:103290002FFA00B101BE0D4B0093FF2356220949BE
:1032A0000B4805F039FB00B101BE084B0093FF232A
:1032B00057220449074805F02FFB00B101BE03B0B7
:1032C0005DF804FBAC2B0008748901106C890110B7
:1032D000942B0008A02B000808B5024805F02CFC30
:1032E00008BD00BF942B000808B5024805F024FC77
:1032F00008BD00BFA02B000810B5FFF7EDFF044686
:10330000FFF7F2FFB4F5404F02D3B0F5404F23D2A0
:10331000B4F5404F03D343F6FE7398421ED943F6EB
:10332000FE739C4202D8B0F5404F19D243F6FE73AB
:103330009C4201D8984215D9B4F5404F14D243F6B7
:10334000FE739C4212D9B0F5404F11D2984201D978
:1033500000200AE0042008E0052006E0072004E041
:10336000062002E0082000E0012010BD0220FCE75A
:103370000320FAE710B54468C068A04710BD10B537
:103380000468C068A04710BD30B583B004460D4640
:10339000012301AA1021FFF7EDFF08B103B030BDF2
:1033A0009DF8043065F383038DF80430012301AAEE
:1033B00010212046FFF7E3FFF0E730B583B0044665
:1033C0000D46012301AA1021FFF7D4FF08B103B075
:1033D00030BD9DF8043065F307138DF804300123E8
:1033E00001AA10212046FFF7CAFFF0E708B50A46F8
:1033F00001230F21FFF7BEFF08BD30B583B004469F
:103400000D46012301AA1221FFF7B4FF08B103B052
:1034100030BD9DF8043065F300038DF804300123BE
:1034200001AA12212046FFF7AAFFF0E710B582B0EB
:103430000C46012301AA1221FFF79CFF9DF80430DE
:10344000C3F30003237002B010BD30B583B004464F
:103450000D46012301AA5821FFF78CFF08B103B0E4
:1034600030BD9DF8043065F304138DF8043001235A
:1034700001AA58212046FFF782FFF0E710B588B077
:1034800004460191012306AA0D21FFF773FFC8B17D
:10349000002856D000285BD0002860D0002800F01B
:1034A0009D80002800F0A180002800F0AD80002859
:1034B00000F0B180002800F0BD80002800F0D88026
:1034C00008B010BD9DF804309DF8182063F3000289
:1034D0008DF81820C3F34001D2B261F341028DF898
:1034E0001820C3F38001D2B261F382028DF8182054
:1034F000C3F3C001D2B261F3C3028DF81820C3F345
:103500000011D2B261F304128DF81820C3F34011F8
:10351000D2B261F345128DF81820C3F38011D2B2F4
:1035200061F386128DF81820DB09D2B263F3C7125B
:103530008DF81820012306AA0D212046FFF71FFF52
:10354000A6E7012305AA5E212046FFF713FFA1E7A6
:10355000012304AA5F212046FFF70CFF9CE79DF89A
:1035600005309DF8142063F300028DF81420C3F396
:103570004001D2B261F341028DF81420C3F38001FF
:10358000D2B261F382028DF81420C3F3C001D2B22B
:1035900061F3C3028DF81420C3F30011D2B261F3BA
:1035A00004128DF81420C3F34011D2B261F3451216
:1035B0008DF81420C3F38011D2B261F386128DF816
:1035C0001420DB09D2B263F3C7128DF81420012353
:1035D00005AA5E212046FFF7D2FE5FE7012303AA7A
:1035E00013212046FFF7C6FE5BE79DF806209DF8F5
:1035F0000C3062F304138DF80C30012303AA13215D
:103600002046FFF7BCFE4FE7012307AA1A212046F8
:10361000FFF7B0FE4BE79DF806209DF81C3062F3E3
:10362000C7138DF81C30012307AA1A212046FFF783
:10363000A6FE3FE7012302AA58212046FFF79AFE83
:103640009DF8053013F0FC0F04D19DF8103013F0F5
:10365000FC0F06D09DF8083043F080038DF8083049
:103660002BE79DF808306FF3C7138DF8083024E777
:10367000012302AA58212046FFF781FE20E730B53A
:1036800085B005460C46012302AA0D21FFF772FE04
:1036900008B105B030BD9DF80830227863F3000210
:1036A0002270C3F34001D2B261F341022270C3F32E
:1036B0008001D2B261F382022270C3F3C001D2B2A0
:1036C00061F3C3022270C3F30011D2B261F304129A
:1036D0002270C3F34011D2B261F345122270C3F3DA
:1036E0008011D2B261F386122270DB09D2B263F389
:1036F000C7122270012301AA5E212846FFF73AFE75
:103700000028C6D19DF80430627863F3000262702D
:10371000C3F34001D2B261F341026270C3F380018E
:10372000D2B261F382026270C3F3C001D2B261F31C
:10373000C3026270C3F30011D2B261F3041262706B
:10374000C3F34011D2B261F345126270C3F380112A
:10375000D2B261F386126270DB09D2B263F3C71290
:10376000627001236A4613212846FFF703FE0028F2
:103770008FD19DF80030C3F30013A27863F30002E9
:10378000A270012303AA1A212846FFF7F3FD9DF832
:103790000C30DB09A27863F30002A27079E730B540
:1037A00083B004460D46012301AA1721FFF7E2FD6D
:1037B00008B103B030BD9DF8043065F300038DF807
:1037C0000430012301AA17212046FFF7D8FDF0E7B6
:1037D00030B583B004460D46012301AA5921FFF7F5
:1037E000C9FD08B103B030BD9DF8043065F3461340
:1037F0008DF80430012301AA59212046FFF7BFFDAF
:10380000F0E7000000B585B0002303930293019315
:1038100001220092FF223221074807F011FD074BD9
:10382000186000B101BE40F6AC520549024807F0ED
:10383000C9FD05B05DF804FBA02C0008D82C0008D9
:103840000000484208B5044807F004FE034B186026
:1038500000B101BE08BD00BFA02C0008D82C000894
:1038600008B5044807F016FE034B186000B101BE0E
:1038700008BD00BFA02C0008D82C000800B585B0FA
:103880000D4B029300230193FF230093182219216B
:103890000A480AF04BFB00B101BE094A4FF4E1317E
:1038A00006480AF089F800B101BE04480AF028F978
:1038B00005B05DF804FB00BF88890110E02C00080A
:1038C000DC2C000810B586B00D4C7022002120467B
:1038D00011F0B6FD00230493039308220292019392
:1038E000FF2300933A2339223821204608F074FD43
:1038F00008B106B010BD0349204608F031FAF8E7D8
:10390000882D000840420F0070B582B004460E4674
:103910001D460022FF2109F073FC00B101BE3146B3
:10392000204609F0C7FC00B101BE0D49204609F050
:10393000CBFB00B101BE04F1080600222946304647
:1039400009F0C6F90122009203233146204609F00E
:10395000FFF9204609F07EFC00B101BE02B070BD47
:1039600000E1F50508B5034809F0FEFCFFF74AFF42
:1039700008BD00BF0830000808B500F0E7F800F007
:10398000C9FB01F075FB00F0CBFC00F015FD00F069
:1039900053FA00F0A1F900F0F9F908BD08B501F0FB
:1039A00071FE0E4B186000221021012002F0B2FFC0
:1039B0000B4B186000220121084602F0ABFF094BB7
:1039C000186000F0EFFE00F08FFF01F015F801F035
:1039D0006DF901F01BFA01F001FB08BDFC2F000896
:1039E000043000080030000800B583B0FFF7C4FFC2
:1039F000FFF7D4FF0021009102230A460348006824
:103A000004F02EF903F01EF901BEFEE7E4300008D1
:103A100010B582B007E00099F1B12A480CF05DFBC7
:103A2000009802F03BFA4FF0FF326946264B1868C7
:103A300002F0EEFC0128F6D19DF80430032BEFD8FC
:103A400001A252F823F000BF173A00105D3A0010AF
:103A50007F3A0010A13A001001BEDEE71B49194869
:103A60000CF03BFB009941B1164C20460CF035FBA5
:103A7000174920460CF031FBD2E701BEF4E71549A7
:103A800010480CF02AFB009941B10E4C20460CF076
:103A900024FB0F4920460CF020FBC1E701BEF4E7F0
:103AA0000D4908480CF019FB009941B1054C20461E
:103AB0000CF013FB064920460CF00FFBB0E701BEEB
:103AC000F4E700BF00006540B83000089491011091
:103AD00058890110B0910110CC9101100EB430B58D
:103AE00084B00446642002F051F9B8B1054608AB31
:103AF0000193C4B90020019B079AC0F164012844D6
:103B000012F02EFB8DF80C40029500231A4602A9F4
:103B10000C48006802F0ACFA01280FD104B0BDE8EF
:103B2000304003B0704703F083FD03F0E1FE03462D
:103B3000054A6421284612F069FADCE7284602F0BB
:103B4000ADF9EBE7B8300008E891011000B587B097
:103B5000144B029300230193FF2300932822292171
:103B600011480AF0E3F900B101BE05AA4FF4E131B2
:103B70000D4809F021FF00B101BE002208211020EC
:103B800002F0C8FE094B1860002301930322009243
:103B90004FF4F0620649074803F01CF807B05DF8DF
:103BA00004FB00BF0092011010300008B83000087C
:103BB000F4910110113A001070B582B0FFF782FE47
:103BC000FEF7BAFC00248DF807408DF80640254624
:103BD0002CE001238DF8053000234FF0FF320DF16A
:103BE00005013A48006802F043FA0821384B18688A
:103BF00001F007FE9DF80630A3F11002D2B22B2A85
:103C00004ED804238DF8053000234FF0FF320DF11C
:103C100005012E48006802F02BFA08212C4B186889
:103C200001F0EFFD9DF807409DF80650642003F079
:103C30000DFA284E01230DF1070229213046FFF726
:103C400099FB01230DF106022B213046FFF792FB71
:103C500000238DF80530103CE4B2DF2CE2D9103D92
:103C6000EDB2DF2DDED99DF80730A3F11002D2B2FC
:103C70002B2AAED93C33DBB22B2BBBD802238DF8D9
:103C8000053000234FF0FF320DF105010F480068A9
:103C900002F0EEF908210E4B186801F0B2FDA9E719
:103CA0003C33DBB22B2BBDD803238DF8053000232A
:103CB0004FF0FF320DF105010448006802F0D8F919
:103CC0000821034B186801F09CFDABE700300008A9
:103CD000FC2F0008442B000800B583B0002301939B
:103CE000052200924FF4A0620349044802F072FFDB
:103CF00003B05DF804FB00BF14920110B93B001043
:103D000000B583B0FEF764FB8020FEF789FC00203D
:103D1000FEF780FC02E00020FEF77CFC4FF0FF3253
:103D20000DF10701184B186802F072FB9DF807307F
:103D3000002BF0D0012B0FD0022B11D0032B13D06E
:103D4000042B15D0052B17D0062B19D0072BE5D146
:103D50007F20FEF75FFCE1E70120FEF75BFCDDE77B
:103D60000320FEF757FCD9E70720FEF753FCD5E701
:103D70000F20FEF74FFCD1E71F20FEF74BFCCDE7ED
:103D80003F20FEF747FCC9E7BC30000800B583B010
:103D900000220121084602F0BDFD074B18600023F8
:103DA00001930422009280220449054802F012FF88
:103DB00003B05DF804FB00BFBC3000082092011086
:103DC000013D001030B583B0002511E002238DF8CD
:103DD00007300821164B186801F013FD00234FF03F
:103DE000FF320DF107011348006802F041F9254642
:103DF000642003F02BF9FFF77FFA04460028F6D081
:103E0000002DF4D18542E4D00228DFD0012807D06C
:103E1000042809D00328DCD103238DF80730D8E724
:103E200001238DF80730D4E704238DF80730D0E75D
:103E3000FC2F00080030000800B583B0FFF71CFA23
:103E4000002301930522009280220349034802F0D7
:103E5000C1FE03B05DF804FB34920110C53D0010B3
:103E6000042831D8DFE800F0030C151E270017489E
:103E70000860174909781180164A12781A8070472D
:103E800015480860154909781180154A12781A807A
:103E9000704714480860144909781180134A127851
:103EA0001A80704712480860124909781180124A36
:103EB00012781A80704711480860114909781180FA
:103EC000104A12781A807047FEE700BF9C890110E3
:103ED000558A0110568A0110F89001109091011036
:103EE000919101108C8F01104A9001104B9001109C
:103EF000588A0110118B0110128B01104C90011087
:103F0000F6900110F790011010B582B004460090B1
:103F10000823C6222621A020FEF736FC00940823A1
:103F2000C6225621A020FEF72FFC00940823C622AB
:103F30008621A020FEF728FC00940823C622B62183
:103F4000A020FEF721FC00940823C622E621A02031
:103F5000FEF71AFC0094C623082287213F20FEF7B3
:103F600013FC0094C623082287216F20FEF70CFC67
:103F70000094C623082287219F20FEF705FC0094A9
:103F8000C62308228721CF20FEF7FEFB0094C6231C
:103F900008228721FF20FEF7F7FB02B010BD0000CA
:103FA00003282BD8F0B587B015461C46032901D944
:103FB00007B0F0BD124B33F81160124B33F810709C
:103FC0000023009328231A4639463046FEF7DCFBCF
:103FD00004AB0DF1120205A92846FFF741FFBDF819
:103FE000303002930194059B0093BDF81230BDF868
:103FF000102039463046FEF711FCD9E7704700BF64
:10400000509201105892011000B589B04FF6E4307B
:10401000FFF77AFF3EE04FF6E430FFF775FF39E037
:1040200047F6EF30FFF770FF34E00023029347F6C6
:10403000EF330193334B0093334B1B78334A1278A1
:104040007821A020FEF7EAFB24E09DF8113033B977
:104050001F23ADF81C300023ADF81E300DE01F23E8
:10406000ADF81E300023ADF81C3006E04FF4784365
:10407000ADF81E300023ADF81C30BDF81E300093A3
:10408000BDF81C309DF818209DF81A109DF81900F5
:10409000FFF786FF4FF0FF3204A91D4B186802F0AE
:1040A000B7F99DF81830052BB5D0062BB8D0072BE3
:1040B000BBD09DF81020022A00D06AB9012BC4D9C8
:1040C0009DF81130002BD1D14FF47843ADF81C305E
:1040D0000023ADF81E30D0E704238DF818309DF88A
:1040E00011303BB94FF4FC63ADF81C300023ADF840
:1040F0001E30C2E70023ADF81C304FF4FC63ADF86E
:104100001E30BAE7148B0110888F0110898F0110BF
:10411000C030000800B583B0FFF712F8002210216C
:10412000012002F0F7FB074B1860002301930422E3
:1041300000924FF4A0620449044802F04BFD03B022
:104140005DF804FBC03000084492011009400010E3
:104150000378A02B17D143785033DBB2012B14D84E
:104160008378032B13D8C378032B12D803792BB190
:10417000032B03D0012B01D0022B0CD14379A12BAF
:104180000BD10120704700207047002070470020AD
:1041900070470020704700207047002070470000E3
:1041A00010B582B00023009311F0800F0DD1009B59
:1041B0004BB14FF0E0234FF08052C3F8042DBFF312
:1041C0004F8FBFF36F8F02B010BD1A460DF107017C
:1041D000234809F05DFC23490B789DF80720C81897
:1041E00042700133DBB20B70D02A10D0C02A1BD032
:1041F000E02A27D0062BDAD11A4C00236A46214642
:104200001948006802F01AF800232370CFE70C4623
:1042100001230B704A7000236A461348006802F0BD
:104220000DF800232370C2E70E4C01232370627047
:1042300000236A4621460C48006801F0FFFF002376
:104240002370B4E7074C01232370627000236A4691
:1042500021460548006801F0F1FF00232370A6E71E
:10426000E02C0008C4300008CC30000800B587B04E
:1042700007E09DF81130D02B36D0C02B3AD0E02B80
:104280003ED04FF0FF3204A9224B186802F0C0F86C
:104290009DF81030012BECD0062BF2D10DF111005E
:1042A000FFF756FF0028ECD000238DF80130019372
:1042B0009DF81230B02B29D000238DF800309DF8E6
:1042C00013308DF809309DF814308DF80A309DF8C0
:1042D00015308DF8083000234FF0FF3269460E4844
:1042E000006801F0C5FECCE710210C4B186801F006
:1042F00088FAC6E72021094B186801F082FAC0E766
:104300004021064B186801F07CFABAE701238DF8CA
:104310000030D4E7CC30000804300008FC2F00083F
:1043200010B582B0FFF7AAFA00220721012002F09F
:10433000F1FA0D4B18600D4C00220D49204609F092
:1043400007FC012303228021204609F015FC0023ED
:104350000193062200924FF420720649064802F0AB
:1043600039FC02B010BD00BFCC300008E02C0008C2
:10437000A1410010609201106D42001010B582B092
:104380000CE004F108036B4413F8071C084809F01B
:10439000A5FB01349DF80030A342F2DC4FF0FF3260
:1043A0006946044B186802F033F80024F2E700BFB6
:1043B000E02C0008D030000800B583B000220721AF
:1043C000012002F0A7FA074B186000230193042292
:1043D00000924FF420720449044802F0FBFB03B042
:1043E0005DF804FBD0300008709201107D4300108E
:1043F0002DE9F04F97B053E101238DF819300523D3
:104400008DF83030DFF8689300234FF0FF320AA9AF
:10441000D9F8000001F02CFE00234FF0FF3206A96E
:10442000D9F8000001F024FE0134E4B25DE14FF060
:10443000FF330093002301220921CA48006801F0DC
:104440002FF910F0080F66D110F0010F00F048812D
:10445000012C0CD9089A22F07F4222F0FF02109B17
:1044600023F07F4323F0FF039A4200F0B6809DF8CB
:104470001830022B00F0B18000238DF81830012C89
:1044800000F0B48006AB0FCB0DF1580C0CE90F0017
:104490009DF821209DF8223003EB82031B01B24AD4
:1044A0000021D15400238DF8193006228DF81020F8
:1044B000A0228DF81120B1228DF812208DF813B0B2
:1044C0008DF814809DF820208DF81520A1228DF8FC
:1044D00016204FF0FF3204A9A448006801F0C8FD7F
:1044E0004FF0FF33009301231A4610219D480068C6
:1044F00001F0D6F8102840F0F38001238DF8193030
:1045000000234FF0FF3206A99948006801F0B0FD82
:104510000134E4B2E4E04FF0FF320DF10F01954BAE
:10452000186801F075FF9DF80F30022B0ED0012B9B
:1045300039D0032B40D0042B10D1BBF1030F4AD04C
:104540000BF1010B5FFA8BFB2F4607E0B8F1030F6D
:104550003BD008F101085FFA88F82F46002F00F0E1
:10456000BF804FF0000A8DF819A00DF118095346CD
:104570004FF0FF3249467E48006801F079FD08EBB4
:104580008B03794A02EB03130FCB89E80F00012359
:104590008DF8193053464FF0FF3249467448006891
:1045A00001F066FD9CE0B8F1000F10D008F1FF3873
:1045B0005FFA88F82F46D1E7BBF1000F09D00BF165
:1045C000FF3B5FFA8BFB2F46C8E70027C6E70027B3
:1045D000C4E70027C2E70027C0E7FFF733F94FF42D
:1045E000967002F033FDFFF73BF979E00DF1380CDE
:1045F00006AB0FCB8CE80F009DF821209DF82230F0
:1046000003EB82031B01584A0021D1544AE74FF0C3
:1046100000098DF8499002238DF838308DF8483024
:104620009DF841309DF842C0DFF83CE10CEB830C73
:104630000EEB0C1C0EAB0FCB8CE80F009DF851203D
:104640009DF8523003EB82030EEB031E16AB13E909
:104650000F008EE80F00DFF830A19AF80030013328
:104660008AF8003044490B7801330B704B464FF009
:10467000FF324248006801F0FBFC9AF80030082B3A
:1046800001D001242CE02E464D4629E0002E7DD09D
:104690000021009102230A463948006803F0E0FA3D
:1046A0004FF0FF320121002003F086FA3549012046
:1046B000FFF714FA6FF07F412A4B186801F07DF87C
:1046C00000212C4B186802F081F8274B06AC0FCB69
:1046D00084E80F00002601273446B046B3463D4625
:1046E000002DD3D0002C3FF487AE022C7FF69FAE76
:1046F000032CF5D19DF840209DF850309A4286D089
:104700004FF47A7002F0A2FC00258DF839508DF834
:10471000495001228DF838208DF848209DF841003D
:104720009DF84230104903EB80031B01CA549DF8E9
:1047300051009DF8523003EB80031B01CA54DFF88F
:1047400030902B464FF0FF320EA9D9F8000001F04F
:104750008FFC2B464FF0FF3212A9D9F8000001F070
:1047600087FCBDE7FC2F0008F82D0008D0300008BA
:10477000C030000800300008F82F0008BC300008E6
:10478000D830000880920110F92F00080021009114
:1047900002230A460248006803F062FA80E700BF7D
:1047A000E830000800B583B0064B01930323009363
:1047B00000234FF420720449044802F00BFA03B0BE
:1047C0005DF804FBD430000898920110F14300100A
:1047D00070B58CB002E010F0400F57D14FF0FF32AF
:1047E0000121002003F0E8F939490120FFF776F9AB
:1047F000384C6FF07F41206800F0DFFF07238DF811
:10480000183000234FF0FF3204A93348006801F04C
:104810002FFC4FF0FF330093002301224221206838
:1048200000F03EFF10F0020FD5D008238DF828309D
:1048300000234FF0FF3208A92748006801F018FC58
:1048400001258DF80850E0238DF8093000234FF042
:10485000FF3202A92148006801F00AFC4FF0FF3640
:1048600000962B462A461021206800F019FF0024EC
:1048700000940223224621461948006803F0F0F90B
:1048800032462946204603F097F9A7E708238DF81A
:10489000283000234FF0FF3208A90F48006801F0CC
:1048A000E7FB01238DF80830D0238DF80930002371
:1048B0004FF0FF3202A90948006801F0D9FB00213E
:1048C000009102230A460748006803F0C9F985E70A
:1048D000AC920110FC2F0008C0300008D030000856
:1048E000E0300008DC30000800B583B0064B0193CF
:1048F0000323009300234FF420720449044802F07C
:1049000069F903B05DF804FBD8300008C8920110C3
:10491000D147001030B589B007E000210091022393
:104920000A462B48006803F09BF94FF0FF32012143
:10493000002003F041F927490120FFF7CFF80025B7
:10494000254B1D7025490D702B464FF0FF32244832
:10495000006801F08DFB6FF07F41224B186800F07A
:104960002CFF01238DF80830D0238DF8093004ACDA
:104970004FF0FF3221461C4B186801F049FD00231F
:104980004FF0FF3202A91948006801F071FB4FF0A7
:10499000000E8DF811E001238DF810309DF81930CC
:1049A0009DF81AC00CEB830C114A02EB0C1C94E826
:1049B0000F008CE80F0073464FF0FF3221460D4880
:1049C000006801F055FB0135EDB2102DCFD1A4E701
:1049D000E8300008E0920110F92F0008F82F0008D5
:1049E000BC300008FC2F000804300008D03000085C
:1049F000F82D0008C030000800B583B0064B0193C5
:104A00000323009300234FF420720449044802F06A
:104A1000E1F803B05DF804FBDC300008FC92011003
:104A2000154900102DE9F04184B00646884600275C
:104A300020E00EF1010EA8EB0703013B734518DDE2
:104A400006EB0E1462680EF1010C06EB0C1CDCF890
:104A500004309A42EDD96D4694E80F0085E80F00C6
:104A60009CE80F0084E80F0095E80F008CE80F0029
:104A7000DFE7013708F1FF33BB4202DD4FF0000EE4
:104A8000D9E704B0BDE8F08170B584B004460222D5
:104A900002724FF4784383810276838380F8282062
:104AA000838580F838208387032280F84820A0F887
:104AB0004C3080F85820A0F85C3080F86820A0F8CE
:104AC0006C3080F87820A0F87C30002580F8885081
:104AD0001F23A0F88C3080F89850A0F89C3080F804
:104AE000A850A0F8AC3080F8B850A0F8BC30012233
:104AF00080F8C820A0F8CC3080F8D820A0F8DC30AE
:104B000080F8E820A0F8EC3080F8F820A0F8FC301D
:104B10000CE01E4903AB009320230A4609F008FE6F
:104B200017E0039B73600023F38101350F2D14DC24
:104B300004EB0516164B1868164B1B6893F82D30BE
:104B40001F2BE6D8114903AB009320230A4609F036
:104B5000AFFD0028E5D001BEE3E710212046FFF7B6
:104B600061FF00220CE06272A372002161700121DA
:104B700004F8101B0B44DBB2032BF4D90132D2B280
:104B8000032A01D80023F7E704B070BDB71DC104A4
:104B900008300008CC000108F0B589B045E0394C78
:104BA00004EB0514637A8DF80B30A37A8DF80C3082
:104BB000237A8DF80D3000234FF0FF3202A93248DE
:104BC000006801F055FA4FF0FF36009601231A46AF
:104BD00010212E48006800F063FD677A94F80AE01F
:104BE0000EEB870C2A4A02EB0C1C94E80F008CE8B1
:104BF0000F008DF819708DF81AE0237A8DF81830AF
:104C000000238DF81130324604A92248006801F0D3
:104C10002FFA0135EDB20F2DC1D9002100910223E9
:104C20000A461D48006803F01BF84FF0FF320121CF
:104C3000002002F0C1FF19490120FEF74FFF0025B7
:104C4000174B1D7017490D702B464FF0FF32164859
:104C5000006801F00DFA6FF07F410C4B186800F00E
:104C6000ACFD0848FFF710FF06238DF80830A0239D
:104C70008DF80930B0238DF80A30A1238DF80E305D
:104C8000C9E700BFF82E0008D0300008FC2F00084C
:104C9000F82D0008C0300008D4300008109301102F
:104CA000F92F0008F82F0008BC30000800B583B0C9
:104CB000064B01930323009300234FF42072044911
:104CC000044801F087FF03B05DF804FBE030000802
:104CD0002C930110994B001010B584B03C49002072
:104CE000FEF7FCFE3B4C21460020FEF7F7FE3A4A59
:104CF0003A490020FEF7F2FE394A3A490020FEF711
:104D0000EDFE394A39490020FEF7E8FE384A3949B4
:104D10000020FEF7E3FE21460020FEF7DFFE1FE045
:104D200001248DF80840C0238DF8093000234FF08E
:104D3000FF3202A93048006801F09AF94FF0FF33C2
:104D400000932346224610212C48006800F0A8FC5E
:104D50000021009102230A462948006802F080FFE2
:104D60004FF0FF320121002002F026FF25490120EB
:104D7000FEF7B4FE6FF07F41204B186800F01DFD78
:104D80004FF0FF3300930023012221211B480068CC
:104D900000F086FC10F0010FC2D110F0200FEFD010
:104DA00001238DF80830D0238DF8093000234FF00F
:104DB000FF3202A91048006801F05AF90021009161
:104DC00002230A461048006802F04AFFC8E700BF05
:104DD000449301105093011004230008889301109C
:104DE000909301109C930110AC930110B8930110A3
:104DF00014230008C8930110D0300008FC2F0008CD
:104E0000E0300008D8930110DC30000800B583B012
:104E1000064B01930323009300234FF420720449AF
:104E2000044801F0D7FE03B05DF804FBE43000084D
:104E3000F4930110D94C00102DE9F04790B04FF0D9
:104E400000089CE000238DF8313006228DF83820D0
:104E50004FF0FF320CA95848006801F009F90136FB
:104E600024E04FF47A7002F0F1F801258DF810502B
:104E7000514C00234FF0FF3204A9206801F0F8F8EC
:104E80008DF8205000234FF0FF3208A9206801F070
:104E9000EFF80025009502232A4629464748006876
:104EA00002F0DEFE002D5FD0002ECBD0DFF824A173
:104EB0004FF0FF3204A9DAF8000001F0A9FA01234B
:104EC0008DF80830D0238DF80930DFF80C910023DD
:104ED0004FF0FF3202A9D9F8000001F0C9F8002410
:104EE0008DF81040344F23464FF0FF3204A9386844
:104EF00001F0BEF84FF0FF3208A9DAF8000001F027
:104F000087FA23464FF0FF3202A9D9F8000001F0DA
:104F1000AFF88DF8204023464FF0FF3208A93868DB
:104F200001F0A6F89DF818209DF828309A4298D1F3
:104F30009DF819109DF81A30214A03EB81031B01DB
:104F40000221D1549DF829009DF82A3003EB8003FB
:104F50001B01D1541B4A13780133DBB21370082BA9
:104F6000A0D1A84600259DE7B8F1000F1AD0002176
:104F7000009102230A461448006802F071FE4FF0C7
:104F8000FF320121002002F017FE10490120FEF738
:104F9000A5FD6FF07F410E4B186800F00EFC002657
:104FA00001257FE70021009102230A46034800689B
:104FB00002F056FEE3E700BFC0300008D43000081E
:104FC000F82D0008F92F0008D83000080C940110C3
:104FD000FC2F000804300008D030000800B583B072
:104FE000064B01930323009300234FF420720449DE
:104FF000044801F0EFFD03B05DF804FBE830000861
:1050000024940110394E001010B5002400E0002453
:10501000322002F01BF8074B1B6913F0080FF6D182
:10502000002CF5D10121044B186800F0EAFB0124A3
:10503000EEE700BF00033140FC2F000810B500244C
:1050400000E00024322002F001F8074B1B6913F046
:10505000100FF6D1002CF5D10221044B186800F096
:10506000D0FB0124EEE700BF00033140FC2F000815
:1050700030B583B00020FEF7E5F800240194052543
:105080000095234680220749074801F0A3FD0194BB
:105090000095234680220549054801F09BFD03B099
:1050A00030BD00BF38940110095000104494011025
:1050B0003D50001008B500F039F800F003F800F09A
:1050C00015F808BD08B5002108460DF089FAFF2241
:1050D000002108460DF0F8F8002108460DF03EFAD0
:1050E000014804F0FDFF08BD5094011010B5094CB3
:1050F000094A0621204609F0B5FF084804F0F0FFF0
:10510000074A0721204609F0ADFF064804F0E8FFF2
:1051100010BD00BF000331408C940110C0940110F9
:105120005494011088940110FEE7000010B59621F8
:1051300000200EF04DFA01200EF0A0FF0EF046FF09
:105140000FF020F80FF00AF8002108460DF0D6FB0A
:1051500000200DF041FB01200DF026FB00200DF09A
:10516000BBFA4A4B1B6893F83F4003E020460DF022
:105170003BFE013C002CF9D1002101200DF044FC44
:1051800000200DF0A9FB002869D00DF0F1FC0021F2
:1051900008460DF039FC002108460DF07DFB00208B
:1051A0000DF01AFB00200DF0FFFA00200DF094FA2C
:1051B000002101200DF028FC002108460DF024FC00
:1051C000002102200DF020FC002103200DF01CFC2A
:1051D000002104200DF018FC2D480DF0E3FC002800
:1051E00048D12C480DF08EFD002846D100210846FC
:1051F0000DF052FB002108460DF080FB26490120EE
:105200000DF018FE00283BD142F2107101200DF084
:105210009FFEC0BB0DF0A6FA00200DF077FA00202B
:105220000DF08AFA0DF094FA642100200EF0D0F906
:1052300000F044F80DF0A0FB00200DF0B1FB174882
:1052400004F04EFF164804F04BFF164804F048FFE8
:10525000154804F045FF154804F042FF10BD0DF05D
:1052600001FC40F2111398428FD1012100200DF072
:1052700013FB8AE70420FFF757FF0420FFF754FFD2
:105280000320FFF751FF0320FFF74EFFCC0001087A
:10529000C4940110400D0300EC940110D894011047
:1052A000DC940110E0940110E4940110E8940110E2
:1052B00008B501200AF006F908BD704710B50020B6
:1052C0000EF050F800B910BD0446114B18600DF0F7
:1052D00079FA0130B4FBF0F00E4B18600DF08AFA49
:1052E0000130B4FBF0F40C4B1C60013C0B4BA3FBF6
:1052F00004239B0C01330A4A13700A4BA3FB0423BB
:105300009B090133084A1360DB03084A1360DAE79C
:1053100034230008382300083023000883DE1B43B1
:1053200044230008D34D6210402300083C230008AA
:1053300008B5094808F0E6FFFFF7BFFFFFF7BEFF1B
:105340000022114603200AF013F9044809F074FF03
:10535000034809F0C9FF08BD64A30110EC30000840
:10536000F4940110EFF3108172B6074AD2F8883036
:1053700043F47003C2F88830BFF34F8FBFF36F8FD1
:1053800081F31088704700BF00ED00E008B50448C5
:105390000EF0A0FA08B1002008BD0248FCE700BFEB
:1053A000482300080000020610B504F097FE0446EA
:1053B00028B144B1FFF77EFE5CB1204610BD07F076
:1053C0008BFA0446F5E740F6E441002007F036FB8F
:1053D000F0E7FFF7DBFF0446EFE708B5FFF7E4FF70
:1053E00000B101BE62B6FEF7BDFAFEF7FDFAFEE7B8
:1053F0000230800803D001300238FCD100BF00BF6A
:105400007047EFF3108072B6704780F310887047D2
:10541000B0F1FF3F22D008B338B5C50E43011B1AC7
:1054200065F10005AD0045EA93759B00181845F13C
:105430000005ED0045EA5075C4004FF47A72002370
:10544000204629460FF026FD6FF47A73A34240F2FE
:10545000E733AB4101D26FF0010038BD7047002047
:1054600070470000034B0360034B0B608023136005
:10547000704700BF8C3800088C320008034B036073
:10548000034B0B604FF48073136070475C39000866
:105490008C34000830B583B00446002301931D4BC3
:1054A0001B68CBB11B4B1B68A3B1FFF7AAFF0546D6
:1054B00002F09AF858B14FF47A7000FB04F41648E1
:1054C000A0FB0434A409FFF7CAFF84420ED8284683
:1054D000FFF79BFF03B030BD104805F021FC18B961
:1054E0000C4B0E4A1A60DDE701BEDBE7012301AA7F
:1054F000211A0848006807F037FA0028E7D1019B15
:10550000A34200D901BE0198FFF782FF01F0F6FB2C
:10551000DDE700BF74320008D34D62107832000816
:10552000EFF3058303B100BE7047000008B5074BD9
:105530001B7813B1054B187808BD02F07FF80138CD
:1055400018BF0120014B1870F4E700BF7C3B000836
:1055500010B5FFF7E5FF00F05DFA0024032C0BDC2B
:10556000104B53F8243013B1013424B2F6E70D4B3D
:10557000012143F8241001E04FF0FF3400F06CFAF1
:10558000002C0BDB04EB8401074B03EB011104201F
:1055900001F0FCF9034B43F8240010BD00BE0020CD
:1055A000FBE700BF2C3A00083C3A000810B504465F
:1055B000FFF7B6FFFFF7BAFF30B142F21071204695
:1055C00001F0A6F80128F8D110BD10B50446FFF788
:1055D000A7FFFFF7ABFF00B910BD204600F00DFE9E
:1055E000FAE7000008B5FFF7B3FF074B1860FFF7B5
:1055F000AFFF064B1860FFF7ABFF054B1860FFF7D6
:10560000A7FF044B186008BD883B0008843B0008D6
:10561000803B00088C3B000808B50346084A106828
:10562000084A121A9A4203DB0344054A136008BD74
:105630000FF0B0FD0C2303604FF0FF30F7E700BF21
:105640006423000800E8010808B5024B1868FFF75A
:10565000ADFF08BD883B000808B5024B1868FFF78E
:10566000B4FF08BD883B00081AB9084206D11046AD
:10567000704731EA000303D00020704701207047D3
:105680000120704738B5202000F080FB044628B187
:10569000002540F8045B00F0FCF82577204638BD73
:1056A0002DE9F8430D4617461E46DDF82080814659
:1056B000002836D015F07F4F08D04FF03F0383F31A
:1056C0001188BFF36F8FBFF34F8F01BE45B94FF005
:1056D0003F0383F31188BFF36F8FBFF34F8F01BE7A
:1056E00001F0ACFF58B9B8F1000F08D04FF03F03FC
:1056F00083F31188BFF36F8FBFF34F8F01BE02F0AA
:10570000E3F8D9F80040324629462046FFF7ACFFBF
:1057100088B11FB324EA0503C9F800304FF0000830
:105720001EE04FF03F0383F31188BFF36F8FBFF389
:105730004F8F01BEBEE7B8F1000F11D05FB9002155
:105740000EB141F080614246294309F1040001F0A5
:10575000B1FD002404E04FF08071F1E74FF0000844
:1057600001F0CEFBB8F1000F12D048B94FF0E023A2
:105770004FF08052C3F8042DBFF34F8FBFF36F8FEC
:1057800002F000FA044610F0007F04D024F07F44B9
:105790002046BDE8F88300F03DF9D9F800403246D4
:1057A00029462046FFF760FF20B11FB124EA050516
:1057B000C9F8005000F050F9E8E770B50C4606460D
:1057C000A8B114F07F4F08D04FF03F0383F3118846
:1057D000BFF36F8FBFF34F8F01BE00F01BF9356829
:1057E00025EA0404346000F037F9284670BD4FF014
:1057F0003F0383F31188BFF36F8FBFF34F8F01BE59
:10580000DFE7F8B50D460446A8B115F07F4F08D084
:105810004FF03F0383F31188BFF36F8FBFF34F8FB8
:1058200001BE04F10C0602F04FF8206923682B43F7
:105830002360002714E04FF03F0383F31188BFF388
:105840006F8FBFF34F8F01BEDFE7216832EA01019E
:1058500005D111E0216841F0007101F007FE2846F2
:10586000B0420ED04568036823F07F4213F0806F8A
:10587000EBD121681142F2D013F0807FEAD01743B8
:10588000E8E7236823EA0703236001F039FB206877
:10589000F8BD00F1080343604FF0FF328260C3603F
:1058A000036100230360704700230361704743686E
:1058B0004B609A688A60516099600861036801339F
:1058C000036070470369416882688A60416851607B
:1058D0005A68824206D0002202611A68013A1A60B0
:1058E0001868704782685A60F5E730B40D68B5F102
:1058F000FF3F11D000F108031C465B681A68AA42FA
:10590000FAD963684B6099608C60616008610368D4
:105910000133036030BC70470469F2E782B00023B2
:1059200001930D4B1B68B3F1FF3F08D04FF03F03CD
:1059300083F31188BFF36F8FBFF34F8F01BE4FF01A
:105940003F0383F31188BFF36F8FBFF34F8F019B2A
:10595000002BFCD002B0704768230008084800689C
:10596000006880F308884FF0000080F3148862B666
:1059700061B6BFF34F8FBFF36F8F00DF00BF000032
:1059800008ED00E0DFF80C00016841F470010160EF
:105990007047000088ED00E008B54FF03F0383F347
:1059A0001188BFF36F8FBFF34F8F01F0EDF928B16E
:1059B0004FF0E0234FF08052C3F8042D002383F30F
:1059C000118808BD4FF0807340F8043C21F00101BC
:1059D00040F8081C054B40F80C3C40F8202C6FF0B8
:1059E000020340F8243C4438704700BF1D590010A2
:1059F000074B19680868B0E8F04F80F30988BFF3D7
:105A00006F8F4FF0000080F311887047AFF3008074
:105A100004FC00084FF03F0383F31188BFF36F8F3E
:105A2000BFF34F8F0B4A136801331360012B00D073
:105A300070474FF0E023D3F8043D13F0FF0FF7D089
:105A40004FF03F0383F31188BFF36F8FBFF34F8F86
:105A500001BEEDE768230008094B1B6843B94FF00E
:105A60003F0383F31188BFF36F8FBFF34F8F01BEE6
:105A7000034A1368013B13600BB983F31188704725
:105A80006823000800000000000000000000000083
:105A9000EFF30980BFF36F8F154B1A681EF0100FDC
:105AA00008BF20ED108A20E9F04F10602DE90900B1
:105AB0004FF03F0080F31188BFF34F8FBFF36F8F1C
:105AC00001F022FB4FF0000080F3118809BC196837
:105AD0000868B0E8F04F1EF0100F08BFB0EC108A55
:105AE00080F30988BFF36F8F704700BFAFF300806A
:105AF00004FC00084FF0E022002313619361074B80
:105B00001B680749A1FB03139B09013B5361072352
:105B10001361044B9B68044ADA6370473023000822
:105B2000D34D621000ED00E09959001030B583B0FC
:105B30004FF0E023D3F8002D3E4B9A421AD04FF09D
:105B4000E023D3F8002D3C4B9A421DD03B4B1A78F2
:105B5000D2B20192FF221A701B78DBB28DF80330AB
:105B60009DF8033003F03F03354A1370354B07228D
:105B70001A601DE04FF03F0383F31188BFF36F8F6E
:105B8000BFF34F8F01BEDAE74FF03F0383F3118875
:105B9000BFF36F8FBFF34F8F01BED7E7294A13685A
:105BA000013B13609DF803305B00DBB28DF80330DE
:105BB0009DF8033013F0800FF0D1224B1B68042BAB
:105BC00008D04FF03F0383F31188BFF36F8FBFF30B
:105BD0004F8F01BE1B4A13681B02136003F4E0637E
:105BE0001360019BDBB2154A13704FF0E024D4F828
:105BF000203D43F47F03C4F8203DD4F8203D43F01A
:105C00007F43C4F8203DFFF775FF00250E4B1D6054
:105C1000FFF7B8FED4F8343F43F04043C4F8343FB4
:105C2000FFF79CFE01F070FAFFF778FE284603B0FC
:105C300030BD00BF71C20F4170C20F4100E400E0EF
:105C4000903B0008943B000868230008EFF30583AD
:105C50000F2B0FD9114A9B5CDBB2114A12789A4282
:105C600008D94FF03F0383F31188BFF36F8FBFF361
:105C70004F8F01BE4FF0E023D3F80C3D03F4E063F7
:105C8000084A1268934208D94FF03F0383F3118802
:105C9000BFF36F8FBFF34F8F01BE7047F0E300E09B
:105CA000903B0008943B00084FF03F0383F31188BA
:105CB000BFF36F8FBFF34F8F01BEFEE74FF03F037F
:105CC00083F31188BFF36F8FBFF34F8F01BEFEE7E1
:105CD000104A12F0070F1AD0D11D21F00701C1F5AB
:105CE000404313440A460C480260002141601344BB
:105CF000083B23F007030948036059601960991AAB
:105D000051601360064B1960064B196070474FF4E1
:105D10004043E8E79C3B0008ACFB0008983B0008C8
:105D2000A0FB00089CFB0008164B1A461B68834228
:105D3000FBD3516802EB010C844509D0416800EBAC
:105D4000010C634509D00360904219D01060704780
:105D50004068014451601046F0E710B40A4C2468D2
:105D6000A3420BD05B681944416013681B68036051
:105D7000904200D010605DF8044B70470460F7E774
:105D8000704700BFACFB0008983B000870B50546A3
:105D900001F09AFD3C4B1B6893B13DB105F0070340
:105DA000C3F11003DA43AA420DD31D44002D0CDBCE
:105DB000F5B1364B1B68AB421ED3354A146821E05F
:105DC000FFF786FFE9E70025F0E701F099F80026E4
:105DD000FFF76AFF16F0070F08D04FF03F0383F379
:105DE0001188BFF36F8FBFF34F8F01BE304670BD78
:105DF00001F086F80026EBE701F082F80026E7E7DD
:105E000022461C466368AB4202D22368002BF7D1BE
:105E10001D4B1B68A34233D01668083623681360F5
:105E200063685B1B102B12D9601910F0070F08D0A4
:105E30004FF03F0383F31188BFF36F8FBFF34F8F92
:105E400001BE63685B1B43606560FFF76DFF6268BE
:105E50000E490B689B1A0B600E4909688B4201D2F0
:105E60000C490B6042F000426260002323600A4A42
:105E700013680133136001F043F8002EAAD1A7E79D
:105E800001F03EF80026A3E7983B00089CFB0008C1
:105E9000ACFB0008A0FB0008A4FB000800283AD0D7
:105EA00038B50446A0F1080550F8043C002B08DB87
:105EB0004FF03F0383F31188BFF36F8FBFF34F8F12
:105EC00001BE54F8083C43B14FF03F0383F31188FF
:105ED000BFF36F8FBFF34F8F01BE54F8043C002B0C
:105EE00002DA54F8082C02B138BD23F0004344F81C
:105EF000043C01F0E9FC54F8041C074A13680B4405
:105F000013602846FFF710FF044A1368013313603B
:105F100000F0F6FFE8E770479CFB0008A8FB0008CC
:105F20000346406A18B11B6B1868C0F10700704740
:105F300010B50446FFF76EFDA26BE36B9A4204D0E6
:105F40000024FFF789FD204610BD0124F9E710B5B4
:105F50000446FFF75FFDA36B23B90124FFF77CFD27
:105F6000204610BD0024F9E770B504461546866B3F
:105F7000026C5AB903681BB100200136A66370BDDC
:105F8000806801F049FD0023A360F6E76DB9406821
:105F90000FF048FA226C636813446360A26893426E
:105FA00019D3236863602846E7E7C0680FF03AFA20
:105FB000226C5142E3689B1AE3602268934202D24A
:105FC000A3680B44E360022D01D00020D5E726B181
:105FD000013E0020D1E72846CFE70020CDE7034669
:105FE000026C6AB110B50846D9681144D9609C6842
:105FF000A14201D31968D960D9680FF013FA10BD16
:10600000704738B50546FFF705FD95F8454064B281
:1060100001E0013C64B2002C0ADD6B6A43B105F17A
:10602000240001F0A9F90028F3D001F0D7FAF0E735
:10603000FF2385F84530FFF70FFDFFF7EBFC95F8E0
:10604000444064B201E0013C64B2002C0ADD2B69DB
:1060500043B105F1100001F08FF90028F3D001F0F1
:10606000BDFAF0E7FF2385F84430FFF7F5FC38BDB3
:10607000F0B585B00F4601921D46044690B1DFB1E0
:10608000022D26D001F0DAFA50B9019B43B14FF04E
:106090003F0383F31188BFF36F8FBFF34F8F01BEB0
:1060A000002661E04FF03F0383F31188BFF36F8F49
:1060B000BFF34F8F01BEE2E7236C002BE0D04FF01F
:1060C0003F0383F31188BFF36F8FBFF34F8F01BE80
:1060D000D6E7E36B012BD5D04FF03F0383F3118854
:1060E000BFF36F8FBFF34F8F01BECBE72A46394610
:1060F0002046FFF739FF636A7BB948B14FF0E023D0
:106100004FF08052C3F8042DBFF34F8FBFF36F8F52
:10611000FFF7A2FC012005B0F0BD04F1240001F05E
:106120002BF90028F4D04FF0E0234FF08052C3F851
:10613000042DBFF34F8FBFF36F8FE9E7FFF78CFCA0
:106140000020E8E702A801F003FC012619E0002383
:1061500084F8443021E0002384F8453023E02046D1
:10616000FFF74FFF00F0CCFEFFF754FCA26BE36B90
:106170009A42BBD3022DB9D0019B002BDED0002E5A
:10618000E0D0FFF769FC01F09FFBFFF743FC94F8B8
:10619000440040B2B0F1FF3FD9D094F8450040B27E
:1061A000B0F1FF3FD7D0FFF757FC01A902A801F0DB
:1061B000CFF9D8B92046FFF7BBFE0028CFD0019910
:1061C00004F1100001F0AAFB2046FFF71AFF00F0CF
:1061D00097FE0028C8D14FF0E0234FF08052C3F85B
:1061E000042DBFF34F8FBFF36F8FBDE72046FFF73E
:1061F00008FF00F085FE00208DE738B5044630B179
:10620000A56801F015FA85420BD0002038BD4FF08B
:106210003F0383F31188BFF36F8FBFF34F8F01BE2E
:10622000EEE7E368013BE3600BB10120EEE71A46BD
:1062300019462046FFF71CFF0120E7E72DE9F84348
:106240000E4690461D460446C8B116B3022D2DD009
:10625000FFF7FCFCEFF311894FF03F0383F3118844
:10626000BFF36F8FBFF34F8FA26BE36B9A422AD3BA
:10627000022D28D0002089F31188BDE8F8834FF063
:106280003F0383F31188BFF36F8FBFF34F8F01BEBE
